{
  "contractName": "TokenZendR",
  "abi": [
    {
      "inputs": [],
      "stateMutability": "nonpayable",
      "type": "constructor"
    },
    {
      "anonymous": false,
      "inputs": [
        {
          "indexed": true,
          "internalType": "address",
          "name": "previousOwner",
          "type": "address"
        },
        {
          "indexed": true,
          "internalType": "address",
          "name": "newOwner",
          "type": "address"
        }
      ],
      "name": "OwnershipTransferred",
      "type": "event"
    },
    {
      "anonymous": false,
      "inputs": [
        {
          "indexed": false,
          "internalType": "address",
          "name": "account",
          "type": "address"
        }
      ],
      "name": "Paused",
      "type": "event"
    },
    {
      "anonymous": false,
      "inputs": [
        {
          "indexed": false,
          "internalType": "address",
          "name": "",
          "type": "address"
        },
        {
          "indexed": false,
          "internalType": "uint256",
          "name": "",
          "type": "uint256"
        }
      ],
      "name": "Received",
      "type": "event"
    },
    {
      "anonymous": false,
      "inputs": [
        {
          "indexed": true,
          "internalType": "address",
          "name": "from_",
          "type": "address"
        },
        {
          "indexed": true,
          "internalType": "address",
          "name": "to_",
          "type": "address"
        },
        {
          "indexed": false,
          "internalType": "uint256",
          "name": "amount_",
          "type": "uint256"
        }
      ],
      "name": "TransferFailed",
      "type": "event"
    },
    {
      "anonymous": false,
      "inputs": [
        {
          "indexed": true,
          "internalType": "address",
          "name": "from_",
          "type": "address"
        },
        {
          "indexed": true,
          "internalType": "address",
          "name": "to_",
          "type": "address"
        },
        {
          "indexed": false,
          "internalType": "uint256",
          "name": "amount_",
          "type": "uint256"
        }
      ],
      "name": "TransferSuccessful",
      "type": "event"
    },
    {
      "anonymous": false,
      "inputs": [
        {
          "indexed": false,
          "internalType": "address",
          "name": "account",
          "type": "address"
        }
      ],
      "name": "Unpaused",
      "type": "event"
    },
    {
      "inputs": [],
      "name": "ERC20Interface",
      "outputs": [
        {
          "internalType": "contract ERC20",
          "name": "",
          "type": "address"
        }
      ],
      "stateMutability": "view",
      "type": "function"
    },
    {
      "inputs": [],
      "name": "owner",
      "outputs": [
        {
          "internalType": "address",
          "name": "",
          "type": "address"
        }
      ],
      "stateMutability": "view",
      "type": "function"
    },
    {
      "inputs": [],
      "name": "paused",
      "outputs": [
        {
          "internalType": "bool",
          "name": "",
          "type": "bool"
        }
      ],
      "stateMutability": "view",
      "type": "function"
    },
    {
      "inputs": [],
      "name": "renounceOwnership",
      "outputs": [],
      "stateMutability": "nonpayable",
      "type": "function"
    },
    {
      "inputs": [
        {
          "internalType": "bytes32",
          "name": "",
          "type": "bytes32"
        }
      ],
      "name": "tokens",
      "outputs": [
        {
          "internalType": "address",
          "name": "",
          "type": "address"
        }
      ],
      "stateMutability": "view",
      "type": "function"
    },
    {
      "inputs": [
        {
          "internalType": "address",
          "name": "",
          "type": "address"
        },
        {
          "internalType": "uint256",
          "name": "",
          "type": "uint256"
        }
      ],
      "name": "transactionIndexesToSender",
      "outputs": [
        {
          "internalType": "uint256",
          "name": "",
          "type": "uint256"
        }
      ],
      "stateMutability": "view",
      "type": "function"
    },
    {
      "inputs": [
        {
          "internalType": "uint256",
          "name": "",
          "type": "uint256"
        }
      ],
      "name": "transactions",
      "outputs": [
        {
          "internalType": "address",
          "name": "contract_",
          "type": "address"
        },
        {
          "internalType": "address",
          "name": "to_",
          "type": "address"
        },
        {
          "internalType": "uint256",
          "name": "amount_",
          "type": "uint256"
        },
        {
          "internalType": "bool",
          "name": "failed_",
          "type": "bool"
        }
      ],
      "stateMutability": "view",
      "type": "function"
    },
    {
      "inputs": [
        {
          "internalType": "address",
          "name": "newOwner",
          "type": "address"
        }
      ],
      "name": "transferOwnership",
      "outputs": [],
      "stateMutability": "nonpayable",
      "type": "function"
    },
    {
      "stateMutability": "payable",
      "type": "receive"
    },
    {
      "inputs": [
        {
          "internalType": "bytes32",
          "name": "symbol_",
          "type": "bytes32"
        },
        {
          "internalType": "address",
          "name": "address_",
          "type": "address"
        }
      ],
      "name": "addNewToken",
      "outputs": [
        {
          "internalType": "bool",
          "name": "",
          "type": "bool"
        }
      ],
      "stateMutability": "nonpayable",
      "type": "function"
    },
    {
      "inputs": [
        {
          "internalType": "bytes32",
          "name": "symbol_",
          "type": "bytes32"
        }
      ],
      "name": "removeToken",
      "outputs": [
        {
          "internalType": "bool",
          "name": "",
          "type": "bool"
        }
      ],
      "stateMutability": "nonpayable",
      "type": "function"
    },
    {
      "inputs": [
        {
          "internalType": "bytes32",
          "name": "symbol_",
          "type": "bytes32"
        },
        {
          "internalType": "address",
          "name": "to_",
          "type": "address"
        },
        {
          "internalType": "uint256",
          "name": "amount_",
          "type": "uint256"
        }
      ],
      "name": "transferTokens",
      "outputs": [],
      "stateMutability": "nonpayable",
      "type": "function"
    },
    {
      "inputs": [
        {
          "internalType": "address payable",
          "name": "beneficiary",
          "type": "address"
        }
      ],
      "name": "withdraw",
      "outputs": [],
      "stateMutability": "payable",
      "type": "function"
    }
  ],
  "bytecode": "0x608060405234801561001057600080fd5b5060006100216100de60201b60201c565b9050806000806101000a81548173ffffffffffffffffffffffffffffffffffffffff021916908373ffffffffffffffffffffffffffffffffffffffff1602179055508073ffffffffffffffffffffffffffffffffffffffff16600073ffffffffffffffffffffffffffffffffffffffff167f8be0079c531659141344cd1fd0a4f28419497f9722a3daafe3b4186f6b6457e060405160405180910390a35060008060146101000a81548160ff0219169083151502179055506100e6565b600033905090565b6113ed806100f56000396000f3fe6080604052600436106100ab5760003560e01c80638da5cb5b116100645780638da5cb5b1461028b578063904194a3146102cc5780639ace38c214610331578063b082443b146103c3578063c479643714610434578063f2fde38b146104a357610107565b80631bbc4b831461010c5780631f9988c91461014d578063224e7462146101b257806351cff8d9146102035780635c975abb14610247578063715018a61461027457610107565b36610107577f88a5966d370b9919b20f3e2c13ff65706f196a4e32cc2c12bf57088f885258743334604051808373ffffffffffffffffffffffffffffffffffffffff1681526020018281526020019250505060405180910390a1005b600080fd5b34801561011857600080fd5b506101216104f4565b604051808273ffffffffffffffffffffffffffffffffffffffff16815260200191505060405180910390f35b34801561015957600080fd5b506101b06004803603606081101561017057600080fd5b8101908080359060200190929190803573ffffffffffffffffffffffffffffffffffffffff1690602001909291908035906020019092919050505061051a565b005b3480156101be57600080fd5b506101eb600480360360208110156101d557600080fd5b8101908080359060200190929190505050610b1c565b60405180821515815260200191505060405180910390f35b6102456004803603602081101561021957600080fd5b81019080803573ffffffffffffffffffffffffffffffffffffffff169060200190929190505050610c79565b005b34801561025357600080fd5b5061025c610ded565b60405180821515815260200191505060405180910390f35b34801561028057600080fd5b50610289610e03565b005b34801561029757600080fd5b506102a0610f70565b604051808273ffffffffffffffffffffffffffffffffffffffff16815260200191505060405180910390f35b3480156102d857600080fd5b50610305600480360360208110156102ef57600080fd5b8101908080359060200190929190505050610f99565b604051808273ffffffffffffffffffffffffffffffffffffffff16815260200191505060405180910390f35b34801561033d57600080fd5b5061036a6004803603602081101561035457600080fd5b8101908080359060200190929190505050610fcc565b604051808573ffffffffffffffffffffffffffffffffffffffff1681526020018473ffffffffffffffffffffffffffffffffffffffff168152602001838152602001821515815260200194505050505060405180910390f35b3480156103cf57600080fd5b5061041c600480360360408110156103e657600080fd5b8101908080359060200190929190803573ffffffffffffffffffffffffffffffffffffffff169060200190929190505050611059565b60405180821515815260200191505060405180910390f35b34801561044057600080fd5b5061048d6004803603604081101561045757600080fd5b81019080803573ffffffffffffffffffffffffffffffffffffffff16906020019092919080359060200190929190505050611166565b6040518082815260200191505060405180910390f35b3480156104af57600080fd5b506104f2600480360360208110156104c657600080fd5b81019080803573ffffffffffffffffffffffffffffffffffffffff169060200190929190505050611197565b005b600460009054906101000a900473ffffffffffffffffffffffffffffffffffffffff1681565b610522610ded565b15610595576040517f08c379a00000000000000000000000000000000000000000000000000000000081526004018080602001828103825260108152602001807f5061757361626c653a207061757365640000000000000000000000000000000081525060200191505060405180910390fd5b600073ffffffffffffffffffffffffffffffffffffffff166003600085815260200190815260200160002060009054906101000a900473ffffffffffffffffffffffffffffffffffffffff1673ffffffffffffffffffffffffffffffffffffffff16141561060257600080fd5b6000811161060f57600080fd5b60006003600085815260200190815260200160002060009054906101000a900473ffffffffffffffffffffffffffffffffffffffff169050600033905081600460006101000a81548173ffffffffffffffffffffffffffffffffffffffff021916908373ffffffffffffffffffffffffffffffffffffffff160217905550600260405180608001604052808473ffffffffffffffffffffffffffffffffffffffff1681526020018673ffffffffffffffffffffffffffffffffffffffff16815260200185815260200160011515815250908060018154018082558091505060019003906000526020600020906004020160009091909190915060008201518160000160006101000a81548173ffffffffffffffffffffffffffffffffffffffff021916908373ffffffffffffffffffffffffffffffffffffffff16021790555060208201518160010160006101000a81548173ffffffffffffffffffffffffffffffffffffffff021916908373ffffffffffffffffffffffffffffffffffffffff1602179055506040820151816002015560608201518160030160006101000a81548160ff021916908315150217905550505060006002805490509050600160008373ffffffffffffffffffffffffffffffffffffffff1673ffffffffffffffffffffffffffffffffffffffff168152602001908152602001600020600182039080600181540180825580915050600190039060005260206000200160009091909190915055600460009054906101000a900473ffffffffffffffffffffffffffffffffffffffff1673ffffffffffffffffffffffffffffffffffffffff1663dd62ed3e83306040518363ffffffff1660e01b8152600401808373ffffffffffffffffffffffffffffffffffffffff1681526020018273ffffffffffffffffffffffffffffffffffffffff1681526020019250505060206040518083038186803b1580156108dc57600080fd5b505afa1580156108f0573d6000803e3d6000fd5b505050506040513d602081101561090657600080fd5b8101908080519060200190929190505050841115610988578473ffffffffffffffffffffffffffffffffffffffff168273ffffffffffffffffffffffffffffffffffffffff167fbf182be802245e8ed88e4b8d3e4344c0863dd2a70334f089fd07265389306fcf866040518082815260200191505060405180910390a3600080fd5b600460009054906101000a900473ffffffffffffffffffffffffffffffffffffffff1673ffffffffffffffffffffffffffffffffffffffff166323b872dd8387876040518463ffffffff1660e01b8152600401808473ffffffffffffffffffffffffffffffffffffffff1681526020018373ffffffffffffffffffffffffffffffffffffffff1681526020018281526020019350505050602060405180830381600087803b158015610a3957600080fd5b505af1158015610a4d573d6000803e3d6000fd5b505050506040513d6020811015610a6357600080fd5b810190808051906020019092919050505050600060026001830381548110610a8757fe5b906000526020600020906004020160030160006101000a81548160ff0219169083151502179055508473ffffffffffffffffffffffffffffffffffffffff168273ffffffffffffffffffffffffffffffffffffffff167fd6d3eb25a413c05d8107fc49deb2789bef7f612582b2482804c0b0423b6638ee866040518082815260200191505060405180910390a3505050505050565b6000610b26611389565b73ffffffffffffffffffffffffffffffffffffffff16610b44610f70565b73ffffffffffffffffffffffffffffffffffffffff1614610bcd576040517f08c379a00000000000000000000000000000000000000000000000000000000081526004018080602001828103825260208152602001807f4f776e61626c653a2063616c6c6572206973206e6f7420746865206f776e657281525060200191505060405180910390fd5b600073ffffffffffffffffffffffffffffffffffffffff166003600084815260200190815260200160002060009054906101000a900473ffffffffffffffffffffffffffffffffffffffff1673ffffffffffffffffffffffffffffffffffffffff161415610c3a57600080fd5b6003600083815260200190815260200160002060006101000a81549073ffffffffffffffffffffffffffffffffffffffff021916905560019050919050565b610c81611389565b73ffffffffffffffffffffffffffffffffffffffff16610c9f610f70565b73ffffffffffffffffffffffffffffffffffffffff1614610d28576040517f08c379a00000000000000000000000000000000000000000000000000000000081526004018080602001828103825260208152602001807f4f776e61626c653a2063616c6c6572206973206e6f7420746865206f776e657281525060200191505060405180910390fd5b610d30610ded565b15610da3576040517f08c379a00000000000000000000000000000000000000000000000000000000081526004018080602001828103825260108152602001807f5061757361626c653a207061757365640000000000000000000000000000000081525060200191505060405180910390fd5b8073ffffffffffffffffffffffffffffffffffffffff166108fc479081150290604051600060405180830381858888f19350505050158015610de9573d6000803e3d6000fd5b5050565b60008060149054906101000a900460ff16905090565b610e0b611389565b73ffffffffffffffffffffffffffffffffffffffff16610e29610f70565b73ffffffffffffffffffffffffffffffffffffffff1614610eb2576040517f08c379a00000000000000000000000000000000000000000000000000000000081526004018080602001828103825260208152602001807f4f776e61626c653a2063616c6c6572206973206e6f7420746865206f776e657281525060200191505060405180910390fd5b600073ffffffffffffffffffffffffffffffffffffffff1660008054906101000a900473ffffffffffffffffffffffffffffffffffffffff1673ffffffffffffffffffffffffffffffffffffffff167f8be0079c531659141344cd1fd0a4f28419497f9722a3daafe3b4186f6b6457e060405160405180910390a360008060006101000a81548173ffffffffffffffffffffffffffffffffffffffff021916908373ffffffffffffffffffffffffffffffffffffffff160217905550565b60008060009054906101000a900473ffffffffffffffffffffffffffffffffffffffff16905090565b60036020528060005260406000206000915054906101000a900473ffffffffffffffffffffffffffffffffffffffff1681565b60028181548110610fdc57600080fd5b90600052602060002090600402016000915090508060000160009054906101000a900473ffffffffffffffffffffffffffffffffffffffff16908060010160009054906101000a900473ffffffffffffffffffffffffffffffffffffffff16908060020154908060030160009054906101000a900460ff16905084565b6000611063611389565b73ffffffffffffffffffffffffffffffffffffffff16611081610f70565b73ffffffffffffffffffffffffffffffffffffffff161461110a576040517f08c379a00000000000000000000000000000000000000000000000000000000081526004018080602001828103825260208152602001807f4f776e61626c653a2063616c6c6572206973206e6f7420746865206f776e657281525060200191505060405180910390fd5b816003600085815260200190815260200160002060006101000a81548173ffffffffffffffffffffffffffffffffffffffff021916908373ffffffffffffffffffffffffffffffffffffffff1602179055506001905092915050565b6001602052816000526040600020818154811061118257600080fd5b90600052602060002001600091509150505481565b61119f611389565b73ffffffffffffffffffffffffffffffffffffffff166111bd610f70565b73ffffffffffffffffffffffffffffffffffffffff1614611246576040517f08c379a00000000000000000000000000000000000000000000000000000000081526004018080602001828103825260208152602001807f4f776e61626c653a2063616c6c6572206973206e6f7420746865206f776e657281525060200191505060405180910390fd5b600073ffffffffffffffffffffffffffffffffffffffff168173ffffffffffffffffffffffffffffffffffffffff1614156112cc576040517f08c379a00000000000000000000000000000000000000000000000000000000081526004018080602001828103825260268152602001806113926026913960400191505060405180910390fd5b8073ffffffffffffffffffffffffffffffffffffffff1660008054906101000a900473ffffffffffffffffffffffffffffffffffffffff1673ffffffffffffffffffffffffffffffffffffffff167f8be0079c531659141344cd1fd0a4f28419497f9722a3daafe3b4186f6b6457e060405160405180910390a3806000806101000a81548173ffffffffffffffffffffffffffffffffffffffff021916908373ffffffffffffffffffffffffffffffffffffffff16021790555050565b60003390509056fe4f776e61626c653a206e6577206f776e657220697320746865207a65726f2061646472657373a2646970667358221220b0c194b619e4a8a0ce7171b5d5f61a5e67611cdd05822bf493e9644cd8e17bf464736f6c63430007060033",
  "immutableReferences": {},
  "source": "pragma solidity >=0.7.0;\r\n\r\nimport \"@openzeppelin/contracts/token/ERC20/ERC20.sol\";\r\nimport \"@openzeppelin/contracts/access/Ownable.sol\";\r\nimport \"@openzeppelin/contracts/utils/Pausable.sol\";\r\n\r\ncontract TokenZendR is Ownable, Pausable {\r\n\r\n    /**\r\n    * @dev Details of each transfer\r\n    * @param contract_ contract address of ER20 token to transfer\r\n    * @param to_ receiving account\r\n    * @param amount_ number of tokens to transfer to_ account\r\n    * @param failed_ if transfer was successful or not\r\n    */\r\n\r\n    struct Transfer {\r\n        address contract_;\r\n        address to_;\r\n        uint amount_;\r\n        bool failed_;\r\n    }\r\n\r\n    /**\r\n    * @dev a mapping from transaction ID's to the sender address\r\n    * that initiates them. Owners can create several transactions\r\n    */\r\n\r\n    mapping(address => uint[]) public transactionIndexesToSender;\r\n\r\n\r\n    /**\r\n    * @dev a list of all transfers successful or unsuccessful\r\n    */\r\n\r\n    Transfer[] public transactions;\r\n\r\n    /**\r\n    * @dev list of all supported tokens for transfer\r\n    *  string token symbol\r\n    *  address contract address of token\r\n    */\r\n\r\n    mapping(bytes32 => address) public tokens;\r\n\r\n    ERC20 public ERC20Interface;\r\n\r\n    /**\r\n    * @dev Event to notify if transfer successful or failed\r\n    * after account approval verified\r\n    */\r\n\r\n    event TransferSuccessful(address indexed from_, address indexed to_, uint256 amount_);\r\n\r\n    event TransferFailed(address indexed from_, address indexed to_, uint256 amount_);\r\n\r\n    constructor() Ownable()  {\r\n\r\n    }\r\n\r\n    /**\r\n    * @dev add address of token to list of supported tokens using\r\n    * token symbol as identifier in mapping\r\n    */\r\n    function addNewToken(bytes32 symbol_, address address_) public onlyOwner returns (bool) {\r\n        tokens[symbol_] = address_;\r\n\r\n        return true;\r\n    }\r\n\r\n    /**\r\n    * @dev remove address of token we no more support\r\n    */\r\n    function removeToken(bytes32 symbol_) public onlyOwner returns (bool) {\r\n        require(tokens[symbol_] != address(0));\r\n\r\n        delete(tokens[symbol_]);\r\n\r\n        return true;\r\n    }\r\n\r\n    /**\r\n    * @dev method that handles transfer of ERC20 tokens to other address\r\n    * it assumes the calling address has approved this contract\r\n    * as spender\r\n    * @param symbol_ identifier mapping to a token contract address\r\n    * @param to_ beneficiary address\r\n    * @param amount_ numbers of token to transfer\r\n    */\r\n    function transferTokens(bytes32 symbol_, address to_, uint256 amount_) public whenNotPaused{\r\n        require(tokens[symbol_] != address(0));\r\n        require(amount_ > 0);\r\n\r\n        address contract_ = tokens[symbol_];\r\n        address from_ = msg.sender;\r\n\r\n        ERC20Interface =  ERC20(contract_);\r\n\r\n        transactions.push(\r\n            Transfer({\r\n            contract_:  contract_,\r\n            to_: to_,\r\n            amount_: amount_,\r\n            failed_: true\r\n            })\r\n        );\r\n        uint256 transactionId = transactions.length;\r\n        transactionIndexesToSender[from_].push(transactionId - 1);\r\n\r\n        if(amount_ > ERC20Interface.allowance(from_, address(this))) {\r\n            emit TransferFailed(from_, to_, amount_);\r\n            revert();\r\n        }\r\n\r\n        ERC20Interface.transferFrom(from_, to_, amount_);\r\n\r\n        transactions[transactionId - 1].failed_ = false;\r\n\r\n        emit TransferSuccessful(from_, to_, amount_);\r\n    }\r\n\r\n\r\n    /**\r\n    * @dev allow contract to receive funds\r\n    */\r\n\r\n    event Received(address, uint);\r\n\r\n     receive() external payable {\r\n        emit Received(msg.sender, msg.value);\r\n    }\r\n    \r\n    /**  \r\n    * @dev withdraw funds from this contract  \r\n    * @param beneficiary address to receive ether  \r\n    */\r\n\r\n    function withdraw(address payable beneficiary) public payable onlyOwner whenNotPaused {  \r\n        beneficiary.transfer(address(this).balance);  \r\n    }  \r\n\r\n}",
  "sourcePath": "C:/Programming/Learning/tokenzendr-smart-contract/contracts/TokenZendR.sol",
  "compiler": {
    "name": "solc",
    "version": "0.7.6+commit.7338295f.Emscripten.clang"
  },
  "schemaVersion": "3.3.4",
  "updatedAt": "2021-04-16T06:29:17.318Z",
  "devdoc": {
    "events": {
      "Received(address,uint256)": {
        "details": "allow contract to receive funds"
      },
      "TransferSuccessful(address,address,uint256)": {
        "details": "Event to notify if transfer successful or failed after account approval verified"
      }
    },
    "kind": "dev",
    "methods": {
      "addNewToken(bytes32,address)": {
        "details": "add address of token to list of supported tokens using token symbol as identifier in mapping"
      },
      "owner()": {
        "details": "Returns the address of the current owner."
      },
      "paused()": {
        "details": "Returns true if the contract is paused, and false otherwise."
      },
      "removeToken(bytes32)": {
        "details": "remove address of token we no more support"
      },
      "renounceOwnership()": {
        "details": "Leaves the contract without owner. It will not be possible to call `onlyOwner` functions anymore. Can only be called by the current owner. NOTE: Renouncing ownership will leave the contract without an owner, thereby removing any functionality that is only available to the owner."
      },
      "transferOwnership(address)": {
        "details": "Transfers ownership of the contract to a new account (`newOwner`). Can only be called by the current owner."
      },
      "transferTokens(bytes32,address,uint256)": {
        "details": "method that handles transfer of ERC20 tokens to other address it assumes the calling address has approved this contract as spender",
        "params": {
          "amount_": "numbers of token to transfer",
          "symbol_": "identifier mapping to a token contract address",
          "to_": "beneficiary address"
        }
      },
      "withdraw(address)": {
        "details": "withdraw funds from this contract  ",
        "params": {
          "beneficiary": "address to receive ether  "
        }
      }
    },
    "stateVariables": {
      "tokens": {
        "details": "list of all supported tokens for transfer  string token symbol  address contract address of token"
      },
      "transactionIndexesToSender": {
        "details": "a mapping from transaction ID's to the sender address that initiates them. Owners can create several transactions"
      },
      "transactions": {
        "details": "a list of all transfers successful or unsuccessful"
      }
    },
    "version": 1
  },
  "userdoc": {
    "kind": "user",
    "methods": {},
    "version": 1
  }
}